{
  "_format": "hh-sol-artifact-1",
  "contractName": "RandomnessOracle",
  "sourceName": "contracts/RandomnessOracle.sol",
  "abi": [
    {
      "inputs": [],
      "stateMutability": "nonpayable",
      "type": "constructor"
    },
    {
      "inputs": [
        {
          "internalType": "bytes",
          "name": "randomness",
          "type": "bytes"
        }
      ],
      "name": "fulfillRandomness",
      "outputs": [],
      "stateMutability": "nonpayable",
      "type": "function"
    },
    {
      "inputs": [],
      "name": "getRandomness",
      "outputs": [
        {
          "internalType": "bytes",
          "name": "",
          "type": "bytes"
        }
      ],
      "stateMutability": "nonpayable",
      "type": "function"
    },
    {
      "inputs": [],
      "name": "requestRandomness",
      "outputs": [],
      "stateMutability": "nonpayable",
      "type": "function"
    }
  ],
  "bytecode": "0x608060405234801561001057600080fd5b506000600160006101000a81548160ff02191690831515021790555060006001806101000a81548160ff02191690831515021790555061057f806100556000396000f3fe608060405234801561001057600080fd5b50600436106100415760003560e01c8063810273ef14610046578063aaae7b8614610062578063f8413b0714610080575b600080fd5b610060600480360381019061005b91906103f6565b61008a565b005b61006a6100f9565b60405161007791906104c7565b60405180910390f35b6100886101c3565b005b60011515600160009054906101000a900460ff161515146100aa57600080fd5b80600090805190602001906100c09291906101f9565b5060018060016101000a81548160ff0219169083151502179055506000600160006101000a81548160ff02191690831515021790555050565b60606001151560018054906101000a900460ff1615151461011957600080fd5b60006001806101000a81548160ff0219169083151502179055506000805461014090610518565b80601f016020809104026020016040519081016040528092919081815260200182805461016c90610518565b80156101b95780601f1061018e576101008083540402835291602001916101b9565b820191906000526020600020905b81548152906001019060200180831161019c57829003601f168201915b5050505050905090565b60018060006101000a81548160ff02191690831515021790555060006001806101000a81548160ff021916908315150217905550565b82805461020590610518565b90600052602060002090601f016020900481019282610227576000855561026e565b82601f1061024057805160ff191683800117855561026e565b8280016001018555821561026e579182015b8281111561026d578251825591602001919060010190610252565b5b50905061027b919061027f565b5090565b5b80821115610298576000816000905550600101610280565b5090565b6000604051905090565b600080fd5b600080fd5b600080fd5b600080fd5b6000601f19601f8301169050919050565b7f4e487b7100000000000000000000000000000000000000000000000000000000600052604160045260246000fd5b610303826102ba565b810181811067ffffffffffffffff82111715610322576103216102cb565b5b80604052505050565b600061033561029c565b905061034182826102fa565b919050565b600067ffffffffffffffff821115610361576103606102cb565b5b61036a826102ba565b9050602081019050919050565b82818337600083830152505050565b600061039961039484610346565b61032b565b9050828152602081018484840111156103b5576103b46102b5565b5b6103c0848285610377565b509392505050565b600082601f8301126103dd576103dc6102b0565b5b81356103ed848260208601610386565b91505092915050565b60006020828403121561040c5761040b6102a6565b5b600082013567ffffffffffffffff81111561042a576104296102ab565b5b610436848285016103c8565b91505092915050565b600081519050919050565b600082825260208201905092915050565b60005b8381101561047957808201518184015260208101905061045e565b83811115610488576000848401525b50505050565b60006104998261043f565b6104a3818561044a565b93506104b381856020860161045b565b6104bc816102ba565b840191505092915050565b600060208201905081810360008301526104e1818461048e565b905092915050565b7f4e487b7100000000000000000000000000000000000000000000000000000000600052602260045260246000fd5b6000600282049050600182168061053057607f821691505b602082108103610543576105426104e9565b5b5091905056fea26469706673582212205e924a547bc9dc95b1f031faee89aa509760474637878cea12e1e9ff35e4908264736f6c634300080d0033",
  "linkReferences": {},
  "deployedLinkReferences": {}
}