{
  "_format": "hh-sol-artifact-1",
  "contractName": "Lottery",
  "sourceName": "contracts/Lottery.sol",
  "abi": [
    {
      "inputs": [
        {
          "internalType": "contract IMockToken",
          "name": "token",
          "type": "address"
        },
        {
          "internalType": "contract IRandomnessOracle",
          "name": "oracle",
          "type": "address"
        }
      ],
      "stateMutability": "nonpayable",
      "type": "constructor"
    },
    {
      "inputs": [
        {
          "internalType": "uint256",
          "name": "poolId",
          "type": "uint256"
        }
      ],
      "name": "draw",
      "outputs": [
        {
          "internalType": "address",
          "name": "",
          "type": "address"
        }
      ],
      "stateMutability": "nonpayable",
      "type": "function"
    },
    {
      "inputs": [
        {
          "internalType": "uint256",
          "name": "maxUserNumber",
          "type": "uint256"
        },
        {
          "internalType": "uint256",
          "name": "tokenAmount",
          "type": "uint256"
        }
      ],
      "name": "open",
      "outputs": [
        {
          "internalType": "uint256",
          "name": "",
          "type": "uint256"
        }
      ],
      "stateMutability": "nonpayable",
      "type": "function"
    },
    {
      "inputs": [
        {
          "internalType": "address",
          "name": "user",
          "type": "address"
        },
        {
          "internalType": "uint256",
          "name": "poolId",
          "type": "uint256"
        }
      ],
      "name": "register",
      "outputs": [
        {
          "internalType": "bool",
          "name": "",
          "type": "bool"
        }
      ],
      "stateMutability": "nonpayable",
      "type": "function"
    }
  ],
  "bytecode": "0x60806040523480156200001157600080fd5b5060405162000cce38038062000cce83398181016040528101906200003791906200018b565b6000600281905550816000806101000a81548173ffffffffffffffffffffffffffffffffffffffff021916908373ffffffffffffffffffffffffffffffffffffffff16021790555080600160006101000a81548173ffffffffffffffffffffffffffffffffffffffff021916908373ffffffffffffffffffffffffffffffffffffffff1602179055505050620001d2565b600080fd5b600073ffffffffffffffffffffffffffffffffffffffff82169050919050565b6000620000fa82620000cd565b9050919050565b60006200010e82620000ed565b9050919050565b620001208162000101565b81146200012c57600080fd5b50565b600081519050620001408162000115565b92915050565b60006200015382620000ed565b9050919050565b620001658162000146565b81146200017157600080fd5b50565b60008151905062000185816200015a565b92915050565b60008060408385031215620001a557620001a4620000c8565b5b6000620001b5858286016200012f565b9250506020620001c88582860162000174565b9150509250929050565b610aec80620001e26000396000f3fe608060405234801561001057600080fd5b50600436106100415760003560e01c80633b304147146100465780634082de67146100765780636d705ebb146100a6575b600080fd5b610060600480360381019061005b91906105de565b6100d6565b60405161006d919061064c565b60405180910390f35b610090600480360381019061008b9190610667565b6102e8565b60405161009d91906106b6565b60405180910390f35b6100c060048036038101906100bb91906106fd565b6103ea565b6040516100cd9190610758565b60405180910390f35b600080600360008481526020019081526020016000206040518060800160405290816000820160009054906101000a900473ffffffffffffffffffffffffffffffffffffffff1673ffffffffffffffffffffffffffffffffffffffff1673ffffffffffffffffffffffffffffffffffffffff168152602001600182015481526020016002820154815260200160038201548152505090503373ffffffffffffffffffffffffffffffffffffffff16816000015173ffffffffffffffffffffffffffffffffffffffff16146101a957600080fd5b60008160400151036101bf5760009150506102e3565b6000600160009054906101000a900473ffffffffffffffffffffffffffffffffffffffff1673ffffffffffffffffffffffffffffffffffffffff1663aaae7b866040518163ffffffff1660e01b81526004016000604051808303816000875af1158015610230573d6000803e3d6000fd5b505050506040513d6000823e3d601f19601f8201168201806040525081019061025991906108dd565b90506000826040015182604051602001610273919061097b565b6040516020818303038152906040528051906020012060001c61029691906109cc565b905060046000868152602001908152602001600020600082815260200190815260200160002060009054906101000a900473ffffffffffffffffffffffffffffffffffffffff1693505050505b919050565b60008082116102f657600080fd5b6000831161030357600080fd5b600060405180608001604052803373ffffffffffffffffffffffffffffffffffffffff168152602001858152602001600081526020018481525090508060036000600254815260200190815260200160002060008201518160000160006101000a81548173ffffffffffffffffffffffffffffffffffffffff021916908373ffffffffffffffffffffffffffffffffffffffff16021790555060208201518160010155604082015181600201556060820151816003015590505060016002546103cc9190610a2c565b60028190555060016002546103e19190610a82565b91505092915050565b60008015156005600084815260200190815260200160002060008573ffffffffffffffffffffffffffffffffffffffff1673ffffffffffffffffffffffffffffffffffffffff16815260200190815260200160002060009054906101000a900460ff1615151461045957600080fd5b6000600360008481526020019081526020016000206002015490506003600084815260200190815260200160002060010154811061049657600080fd5b60016005600085815260200190815260200160002060008673ffffffffffffffffffffffffffffffffffffffff1673ffffffffffffffffffffffffffffffffffffffff16815260200190815260200160002060006101000a81548160ff0219169083151502179055508360046000858152602001908152602001600020600083815260200190815260200160002060006101000a81548173ffffffffffffffffffffffffffffffffffffffff021916908373ffffffffffffffffffffffffffffffffffffffff16021790555060018161056f9190610a2c565b6003600085815260200190815260200160002060020181905550600191505092915050565b6000604051905090565b600080fd5b600080fd5b6000819050919050565b6105bb816105a8565b81146105c657600080fd5b50565b6000813590506105d8816105b2565b92915050565b6000602082840312156105f4576105f361059e565b5b6000610602848285016105c9565b91505092915050565b600073ffffffffffffffffffffffffffffffffffffffff82169050919050565b60006106368261060b565b9050919050565b6106468161062b565b82525050565b6000602082019050610661600083018461063d565b92915050565b6000806040838503121561067e5761067d61059e565b5b600061068c858286016105c9565b925050602061069d858286016105c9565b9150509250929050565b6106b0816105a8565b82525050565b60006020820190506106cb60008301846106a7565b92915050565b6106da8161062b565b81146106e557600080fd5b50565b6000813590506106f7816106d1565b92915050565b600080604083850312156107145761071361059e565b5b6000610722858286016106e8565b9250506020610733858286016105c9565b9150509250929050565b60008115159050919050565b6107528161073d565b82525050565b600060208201905061076d6000830184610749565b92915050565b600080fd5b600080fd5b6000601f19601f8301169050919050565b7f4e487b7100000000000000000000000000000000000000000000000000000000600052604160045260246000fd5b6107c68261077d565b810181811067ffffffffffffffff821117156107e5576107e461078e565b5b80604052505050565b60006107f8610594565b905061080482826107bd565b919050565b600067ffffffffffffffff8211156108245761082361078e565b5b61082d8261077d565b9050602081019050919050565b60005b8381101561085857808201518184015260208101905061083d565b83811115610867576000848401525b50505050565b600061088061087b84610809565b6107ee565b90508281526020810184848401111561089c5761089b610778565b5b6108a784828561083a565b509392505050565b600082601f8301126108c4576108c3610773565b5b81516108d484826020860161086d565b91505092915050565b6000602082840312156108f3576108f261059e565b5b600082015167ffffffffffffffff811115610911576109106105a3565b5b61091d848285016108af565b91505092915050565b600081519050919050565b600082825260208201905092915050565b600061094d82610926565b6109578185610931565b935061096781856020860161083a565b6109708161077d565b840191505092915050565b600060208201905081810360008301526109958184610942565b905092915050565b7f4e487b7100000000000000000000000000000000000000000000000000000000600052601260045260246000fd5b60006109d7826105a8565b91506109e2836105a8565b9250826109f2576109f161099d565b5b828206905092915050565b7f4e487b7100000000000000000000000000000000000000000000000000000000600052601160045260246000fd5b6000610a37826105a8565b9150610a42836105a8565b9250827fffffffffffffffffffffffffffffffffffffffffffffffffffffffffffffffff03821115610a7757610a766109fd565b5b828201905092915050565b6000610a8d826105a8565b9150610a98836105a8565b925082821015610aab57610aaa6109fd565b5b82820390509291505056fea2646970667358221220a62c79001f452646fb0adbc2619b17c95403c9ca8c6af2ec7f69cbcc3bfe39f364736f6c634300080d0033",
  "linkReferences": {},
  "deployedLinkReferences": {}
}